{
  "contractName": "FLRegistry",
  "abi": [
    {
      "anonymous": false,
      "inputs": [
        {
          "indexed": false,
          "internalType": "uint256",
          "name": "clientId",
          "type": "uint256"
        },
        {
          "indexed": false,
          "internalType": "int256",
          "name": "reputation",
          "type": "int256"
        }
      ],
      "name": "ReputationUpdated",
      "type": "event"
    },
    {
      "anonymous": false,
      "inputs": [
        {
          "indexed": false,
          "internalType": "uint256",
          "name": "round",
          "type": "uint256"
        },
        {
          "indexed": false,
          "internalType": "uint256",
          "name": "clientId",
          "type": "uint256"
        },
        {
          "indexed": false,
          "internalType": "string",
          "name": "cid",
          "type": "string"
        }
      ],
      "name": "UpdateSubmitted",
      "type": "event"
    },
    {
      "inputs": [
        {
          "internalType": "uint256",
          "name": "",
          "type": "uint256"
        }
      ],
      "name": "reputation",
      "outputs": [
        {
          "internalType": "int256",
          "name": "",
          "type": "int256"
        }
      ],
      "stateMutability": "view",
      "type": "function"
    },
    {
      "inputs": [
        {
          "internalType": "uint256",
          "name": "",
          "type": "uint256"
        }
      ],
      "name": "updates",
      "outputs": [
        {
          "internalType": "uint256",
          "name": "round",
          "type": "uint256"
        },
        {
          "internalType": "uint256",
          "name": "clientId",
          "type": "uint256"
        },
        {
          "internalType": "string",
          "name": "cid",
          "type": "string"
        },
        {
          "internalType": "string",
          "name": "proofHash",
          "type": "string"
        },
        {
          "internalType": "bool",
          "name": "verified",
          "type": "bool"
        }
      ],
      "stateMutability": "view",
      "type": "function"
    },
    {
      "inputs": [
        {
          "internalType": "uint256",
          "name": "round",
          "type": "uint256"
        },
        {
          "internalType": "uint256",
          "name": "clientId",
          "type": "uint256"
        },
        {
          "internalType": "string",
          "name": "cid",
          "type": "string"
        },
        {
          "internalType": "string",
          "name": "proofHash",
          "type": "string"
        }
      ],
      "name": "submitUpdate",
      "outputs": [],
      "stateMutability": "nonpayable",
      "type": "function"
    },
    {
      "inputs": [
        {
          "internalType": "uint256",
          "name": "index",
          "type": "uint256"
        },
        {
          "internalType": "bool",
          "name": "result",
          "type": "bool"
        }
      ],
      "name": "verifyUpdate",
      "outputs": [],
      "stateMutability": "nonpayable",
      "type": "function"
    },
    {
      "inputs": [
        {
          "internalType": "uint256",
          "name": "clientId",
          "type": "uint256"
        }
      ],
      "name": "getReputation",
      "outputs": [
        {
          "internalType": "int256",
          "name": "",
          "type": "int256"
        }
      ],
      "stateMutability": "view",
      "type": "function"
    }
  ],
  "bytecode": "0x608060405234801561001057600080fd5b50610d9c806100206000396000f3fe608060405234801561001057600080fd5b50600436106100575760003560e01c806356c708d51461005c5780636fd5214b1461008c57806389370d8b146100a85780639906d6c1146100d8578063b4c2f727146100f4575b600080fd5b61007660048036038101906100719190610580565b610128565b60405161008391906105c6565b60405180910390f35b6100a660048036038101906100a19190610619565b610140565b005b6100c260048036038101906100bd9190610580565b6102be565b6040516100cf91906105c6565b60405180910390f35b6100f260048036038101906100ed919061079f565b6102db565b005b61010e60048036038101906101099190610580565b6103d3565b60405161011f9594939291906108db565b60405180910390f35b60016020528060005260406000206000915090505481565b80600083815481106101555761015461093c565b5b906000526020600020906005020160040160006101000a81548160ff02191690831515021790555080156101d657600180600080858154811061019b5761019a61093c565b5b906000526020600020906005020160010154815260200190815260200160002060008282546101ca919061099a565b92505081905550610225565b60018060008085815481106101ee576101ed61093c565b5b9060005260206000209060050201600101548152602001908152602001600020600082825461021d91906109de565b925050819055505b7ffee87f59c9a5b153b291b06480e98dc781913dac115bcf726fd443103d1d331d6000838154811061025a5761025961093c565b5b906000526020600020906005020160010154600160008086815481106102835761028261093c565b5b9060005260206000209060050201600101548152602001908152602001600020546040516102b2929190610a21565b60405180910390a15050565b600060016000838152602001908152602001600020549050919050565b60006040518060a00160405280868152602001858152602001848152602001838152602001600015158152509080600181540180825580915050600190039060005260206000209060050201600090919091909150600082015181600001556020820151816001015560408201518160020190816103599190610c56565b50606082015181600301908161036f9190610c56565b5060808201518160040160006101000a81548160ff02191690831515021790555050507f048c1acb19616987da2443762026701112c4c8a3260899ad548617dfa4379eac8484846040516103c593929190610d28565b60405180910390a150505050565b600081815481106103e357600080fd5b906000526020600020906005020160009150905080600001549080600101549080600201805461041290610a79565b80601f016020809104026020016040519081016040528092919081815260200182805461043e90610a79565b801561048b5780601f106104605761010080835404028352916020019161048b565b820191906000526020600020905b81548152906001019060200180831161046e57829003601f168201915b5050505050908060030180546104a090610a79565b80601f01602080910402602001604051908101604052809291908181526020018280546104cc90610a79565b80156105195780601f106104ee57610100808354040283529160200191610519565b820191906000526020600020905b8154815290600101906020018083116104fc57829003601f168201915b5050505050908060040160009054906101000a900460ff16905085565b6000604051905090565b600080fd5b600080fd5b6000819050919050565b61055d8161054a565b811461056857600080fd5b50565b60008135905061057a81610554565b92915050565b60006020828403121561059657610595610540565b5b60006105a48482850161056b565b91505092915050565b6000819050919050565b6105c0816105ad565b82525050565b60006020820190506105db60008301846105b7565b92915050565b60008115159050919050565b6105f6816105e1565b811461060157600080fd5b50565b600081359050610613816105ed565b92915050565b600080604083850312156106305761062f610540565b5b600061063e8582860161056b565b925050602061064f85828601610604565b9150509250929050565b600080fd5b600080fd5b6000601f19601f8301169050919050565b7f4e487b7100000000000000000000000000000000000000000000000000000000600052604160045260246000fd5b6106ac82610663565b810181811067ffffffffffffffff821117156106cb576106ca610674565b5b80604052505050565b60006106de610536565b90506106ea82826106a3565b919050565b600067ffffffffffffffff82111561070a57610709610674565b5b61071382610663565b9050602081019050919050565b82818337600083830152505050565b600061074261073d846106ef565b6106d4565b90508281526020810184848401111561075e5761075d61065e565b5b610769848285610720565b509392505050565b600082601f83011261078657610785610659565b5b813561079684826020860161072f565b91505092915050565b600080600080608085870312156107b9576107b8610540565b5b60006107c78782880161056b565b94505060206107d88782880161056b565b935050604085013567ffffffffffffffff8111156107f9576107f8610545565b5b61080587828801610771565b925050606085013567ffffffffffffffff81111561082657610825610545565b5b61083287828801610771565b91505092959194509250565b6108478161054a565b82525050565b600081519050919050565b600082825260208201905092915050565b60005b8381101561088757808201518184015260208101905061086c565b60008484015250505050565b600061089e8261084d565b6108a88185610858565b93506108b8818560208601610869565b6108c181610663565b840191505092915050565b6108d5816105e1565b82525050565b600060a0820190506108f0600083018861083e565b6108fd602083018761083e565b818103604083015261090f8186610893565b905081810360608301526109238185610893565b905061093260808301846108cc565b9695505050505050565b7f4e487b7100000000000000000000000000000000000000000000000000000000600052603260045260246000fd5b7f4e487b7100000000000000000000000000000000000000000000000000000000600052601160045260246000fd5b60006109a5826105ad565b91506109b0836105ad565b9250828201905082811215600083121683821260008412151617156109d8576109d761096b565b5b92915050565b60006109e9826105ad565b91506109f4836105ad565b9250828203905081811260008412168282136000851215161715610a1b57610a1a61096b565b5b92915050565b6000604082019050610a36600083018561083e565b610a4360208301846105b7565b9392505050565b7f4e487b7100000000000000000000000000000000000000000000000000000000600052602260045260246000fd5b60006002820490506001821680610a9157607f821691505b602082108103610aa457610aa3610a4a565b5b50919050565b60008190508160005260206000209050919050565b60006020601f8301049050919050565b600082821b905092915050565b600060088302610b0c7fffffffffffffffffffffffffffffffffffffffffffffffffffffffffffffffff82610acf565b610b168683610acf565b95508019841693508086168417925050509392505050565b6000819050919050565b6000610b53610b4e610b498461054a565b610b2e565b61054a565b9050919050565b6000819050919050565b610b6d83610b38565b610b81610b7982610b5a565b848454610adc565b825550505050565b600090565b610b96610b89565b610ba1818484610b64565b505050565b5b81811015610bc557610bba600082610b8e565b600181019050610ba7565b5050565b601f821115610c0a57610bdb81610aaa565b610be484610abf565b81016020851015610bf3578190505b610c07610bff85610abf565b830182610ba6565b50505b505050565b600082821c905092915050565b6000610c2d60001984600802610c0f565b1980831691505092915050565b6000610c468383610c1c565b9150826002028217905092915050565b610c5f8261084d565b67ffffffffffffffff811115610c7857610c77610674565b5b610c828254610a79565b610c8d828285610bc9565b600060209050601f831160018114610cc05760008415610cae578287015190505b610cb88582610c3a565b865550610d20565b601f198416610cce86610aaa565b60005b82811015610cf657848901518255600182019150602085019450602081019050610cd1565b86831015610d135784890151610d0f601f891682610c1c565b8355505b6001600288020188555050505b505050505050565b6000606082019050610d3d600083018661083e565b610d4a602083018561083e565b8181036040830152610d5c8184610893565b905094935050505056fea26469706673582212201e4204e1a9d5f20890a0118e6a02882002425aadbccc3187b41dc2761c6eb28664736f6c63430008130033",
  "immutableReferences": {},
  "source": "// SPDX-License-Identifier: MIT\r\npragma solidity ^0.8.0;\r\n\r\ncontract FLRegistry {\r\n\r\n    struct Update {\r\n        uint round;\r\n        uint clientId;\r\n        string cid;\r\n        string proofHash;\r\n        bool verified;\r\n    }\r\n\r\n    Update[] public updates;\r\n\r\n    mapping(uint => int) public reputation;\r\n\r\n    event UpdateSubmitted(\r\n        uint round,\r\n        uint clientId,\r\n        string cid\r\n    );\r\n\r\n    event ReputationUpdated(\r\n        uint clientId,\r\n        int reputation\r\n    );\r\n\r\n    function submitUpdate(\r\n        uint round,\r\n        uint clientId,\r\n        string memory cid,\r\n        string memory proofHash\r\n    ) public {\r\n\r\n        updates.push(Update(\r\n            round,\r\n            clientId,\r\n            cid,\r\n            proofHash,\r\n            false\r\n        ));\r\n\r\n        emit UpdateSubmitted(round, clientId, cid);\r\n    }\r\n\r\n    function verifyUpdate(\r\n        uint index,\r\n        bool result\r\n    ) public {\r\n\r\n        updates[index].verified = result;\r\n\r\n        if(result){\r\n            reputation[updates[index].clientId] += 1;\r\n        }\r\n        else{\r\n            reputation[updates[index].clientId] -= 1;\r\n        }\r\n\r\n        emit ReputationUpdated(\r\n            updates[index].clientId,\r\n            reputation[updates[index].clientId]\r\n        );\r\n    }\r\n\r\n    function getReputation(uint clientId)\r\n        public\r\n        view\r\n        returns(int)\r\n    {\r\n        return reputation[clientId];\r\n    }\r\n}",
  "sourcePath": "E:\\Desktop\\HK2 25-26\\ĐACN\\Project\\contracts\\FLRegistry.sol",
  "compiler": {
    "name": "solc",
    "version": "0.8.19+commit.7dd6d404.Emscripten.clang"
  },
  "schemaVersion": "3.4.16",
  "updatedAt": "2026-04-03T12:50:18.028Z",
  "devdoc": {
    "kind": "dev",
    "methods": {},
    "version": 1
  },
  "userdoc": {
    "kind": "user",
    "methods": {},
    "version": 1
  }
}