{
  "contractName": "Reputation",
  "abi": [
    {
      "anonymous": false,
      "inputs": [
        {
          "indexed": false,
          "internalType": "uint256",
          "name": "round",
          "type": "uint256"
        },
        {
          "indexed": false,
          "internalType": "uint256",
          "name": "clientId",
          "type": "uint256"
        },
        {
          "indexed": false,
          "internalType": "string",
          "name": "cid",
          "type": "string"
        },
        {
          "indexed": false,
          "internalType": "uint256",
          "name": "accuracy",
          "type": "uint256"
        }
      ],
      "name": "UpdateSubmitted",
      "type": "event"
    },
    {
      "anonymous": false,
      "inputs": [
        {
          "indexed": false,
          "internalType": "uint256",
          "name": "round",
          "type": "uint256"
        },
        {
          "indexed": false,
          "internalType": "uint256",
          "name": "clientId",
          "type": "uint256"
        },
        {
          "indexed": false,
          "internalType": "bool",
          "name": "result",
          "type": "bool"
        }
      ],
      "name": "UpdateVerified",
      "type": "event"
    },
    {
      "inputs": [
        {
          "internalType": "uint256",
          "name": "",
          "type": "uint256"
        }
      ],
      "name": "reputation",
      "outputs": [
        {
          "internalType": "uint256",
          "name": "",
          "type": "uint256"
        }
      ],
      "stateMutability": "view",
      "type": "function",
      "constant": true
    },
    {
      "inputs": [
        {
          "internalType": "uint256",
          "name": "",
          "type": "uint256"
        }
      ],
      "name": "updates",
      "outputs": [
        {
          "internalType": "uint256",
          "name": "round",
          "type": "uint256"
        },
        {
          "internalType": "uint256",
          "name": "clientId",
          "type": "uint256"
        },
        {
          "internalType": "string",
          "name": "cid",
          "type": "string"
        },
        {
          "internalType": "string",
          "name": "proofHash",
          "type": "string"
        },
        {
          "internalType": "uint256",
          "name": "accuracy",
          "type": "uint256"
        },
        {
          "internalType": "bool",
          "name": "verified",
          "type": "bool"
        }
      ],
      "stateMutability": "view",
      "type": "function",
      "constant": true
    },
    {
      "inputs": [
        {
          "internalType": "uint256",
          "name": "round",
          "type": "uint256"
        },
        {
          "internalType": "uint256",
          "name": "clientId",
          "type": "uint256"
        },
        {
          "internalType": "string",
          "name": "cid",
          "type": "string"
        },
        {
          "internalType": "string",
          "name": "proofHash",
          "type": "string"
        },
        {
          "internalType": "uint256",
          "name": "accuracy",
          "type": "uint256"
        }
      ],
      "name": "submitUpdate",
      "outputs": [],
      "stateMutability": "nonpayable",
      "type": "function"
    },
    {
      "inputs": [
        {
          "internalType": "uint256",
          "name": "clientId",
          "type": "uint256"
        },
        {
          "internalType": "uint256",
          "name": "round",
          "type": "uint256"
        },
        {
          "internalType": "bool",
          "name": "result",
          "type": "bool"
        }
      ],
      "name": "verifyUpdate",
      "outputs": [],
      "stateMutability": "nonpayable",
      "type": "function"
    },
    {
      "inputs": [
        {
          "internalType": "uint256",
          "name": "clientId",
          "type": "uint256"
        }
      ],
      "name": "getReputation",
      "outputs": [
        {
          "internalType": "uint256",
          "name": "",
          "type": "uint256"
        }
      ],
      "stateMutability": "view",
      "type": "function",
      "constant": true
    },
    {
      "inputs": [],
      "name": "getUpdates",
      "outputs": [
        {
          "components": [
            {
              "internalType": "uint256",
              "name": "round",
              "type": "uint256"
            },
            {
              "internalType": "uint256",
              "name": "clientId",
              "type": "uint256"
            },
            {
              "internalType": "string",
              "name": "cid",
              "type": "string"
            },
            {
              "internalType": "string",
              "name": "proofHash",
              "type": "string"
            },
            {
              "internalType": "uint256",
              "name": "accuracy",
              "type": "uint256"
            },
            {
              "internalType": "bool",
              "name": "verified",
              "type": "bool"
            }
          ],
          "internalType": "struct Reputation.Update[]",
          "name": "",
          "type": "tuple[]"
        }
      ],
      "stateMutability": "view",
      "type": "function",
      "constant": true
    }
  ],
  "bytecode": "0x608060405234801561001057600080fd5b506111d8806100206000396000f3fe608060405234801561001057600080fd5b50600436106100625760003560e01c806356c708d51461006757806366583ed81461009757806389370d8b146100b3578063a8a1d273146100e3578063b4b43d3814610101578063b4c2f7271461011d575b600080fd5b610081600480360381019061007c919061077f565b610152565b60405161008e91906107bb565b60405180910390f35b6100b160048036038101906100ac919061091c565b61016a565b005b6100cd60048036038101906100c8919061077f565b610275565b6040516100da91906107bb565b60405180910390f35b6100eb610291565b6040516100f89190610bca565b60405180910390f35b61011b60048036038101906101169190610c18565b61044d565b005b6101376004803603810190610132919061077f565b6105cc565b60405161014996959493929190610cc4565b60405180910390f35b60006020528060005260406000206000915090505481565b60016040518060c00160405280878152602001868152602001858152602001848152602001838152602001600015158152509080600181540180825580915050600190039060005260206000209060060201600090919091909150600082015181600001556020820151816001015560408201518160020190816101ee9190610f3f565b5060608201518160030190816102049190610f3f565b506080820151816004015560a08201518160050160006101000a81548160ff02191690831515021790555050507f0fb85acfb38fc079bc9809bb377b784173ae40866517f738c9fa942b197bf017858585846040516102669493929190611011565b60405180910390a15050505050565b6000806000838152602001908152602001600020549050919050565b60606001805480602002602001604051908101604052809291908181526020016000905b8282101561044457838290600052602060002090600602016040518060c001604052908160008201548152602001600182015481526020016002820180546102fc90610d62565b80601f016020809104026020016040519081016040528092919081815260200182805461032890610d62565b80156103755780601f1061034a57610100808354040283529160200191610375565b820191906000526020600020905b81548152906001019060200180831161035857829003601f168201915b5050505050815260200160038201805461038e90610d62565b80601f01602080910402602001604051908101604052809291908181526020018280546103ba90610d62565b80156104075780601f106103dc57610100808354040283529160200191610407565b820191906000526020600020905b8154815290600101906020018083116103ea57829003601f168201915b50505050508152602001600482015481526020016005820160009054906101000a900460ff161515151581525050815260200190600101906102b5565b50505050905090565b60005b6001805490508110156105c65783600182815481106104725761047161105d565b5b9060005260206000209060060201600101541480156104b5575082600182815481106104a1576104a061105d565b5b906000526020600020906006020160000154145b156105b35781600182815481106104cf576104ce61105d565b5b906000526020600020906006020160050160006101000a81548160ff021916908315150217905550811561052c576001600080868152602001908152602001600020600082825461052091906110bb565b92505081905550610573565b6000806000868152602001908152602001600020541115610572576001600080868152602001908152602001600020600082825461056a91906110ef565b925050819055505b5b7f432e5924b086e5d9e7537a09181bfadb8fb0d0cd34869f7ae31e4a6fb8a887e88385846040516105a693929190611123565b60405180910390a16105c6565b80806105be9061115a565b915050610450565b50505050565b600181815481106105dc57600080fd5b906000526020600020906006020160009150905080600001549080600101549080600201805461060b90610d62565b80601f016020809104026020016040519081016040528092919081815260200182805461063790610d62565b80156106845780601f1061065957610100808354040283529160200191610684565b820191906000526020600020905b81548152906001019060200180831161066757829003601f168201915b50505050509080600301805461069990610d62565b80601f01602080910402602001604051908101604052809291908181526020018280546106c590610d62565b80156107125780601f106106e757610100808354040283529160200191610712565b820191906000526020600020905b8154815290600101906020018083116106f557829003601f168201915b5050505050908060040154908060050160009054906101000a900460ff16905086565b6000604051905090565b600080fd5b600080fd5b6000819050919050565b61075c81610749565b811461076757600080fd5b50565b60008135905061077981610753565b92915050565b6000602082840312156107955761079461073f565b5b60006107a38482850161076a565b91505092915050565b6107b581610749565b82525050565b60006020820190506107d060008301846107ac565b92915050565b600080fd5b600080fd5b6000601f19601f8301169050919050565b7f4e487b7100000000000000000000000000000000000000000000000000000000600052604160045260246000fd5b610829826107e0565b810181811067ffffffffffffffff82111715610848576108476107f1565b5b80604052505050565b600061085b610735565b90506108678282610820565b919050565b600067ffffffffffffffff821115610887576108866107f1565b5b610890826107e0565b9050602081019050919050565b82818337600083830152505050565b60006108bf6108ba8461086c565b610851565b9050828152602081018484840111156108db576108da6107db565b5b6108e684828561089d565b509392505050565b600082601f830112610903576109026107d6565b5b81356109138482602086016108ac565b91505092915050565b600080600080600060a086880312156109385761093761073f565b5b60006109468882890161076a565b95505060206109578882890161076a565b945050604086013567ffffffffffffffff81111561097857610977610744565b5b610984888289016108ee565b935050606086013567ffffffffffffffff8111156109a5576109a4610744565b5b6109b1888289016108ee565b92505060806109c28882890161076a565b9150509295509295909350565b600081519050919050565b600082825260208201905092915050565b6000819050602082019050919050565b610a0481610749565b82525050565b600081519050919050565b600082825260208201905092915050565b60005b83811015610a44578082015181840152602081019050610a29565b60008484015250505050565b6000610a5b82610a0a565b610a658185610a15565b9350610a75818560208601610a26565b610a7e816107e0565b840191505092915050565b60008115159050919050565b610a9e81610a89565b82525050565b600060c083016000830151610abc60008601826109fb565b506020830151610acf60208601826109fb565b5060408301518482036040860152610ae78282610a50565b91505060608301518482036060860152610b018282610a50565b9150506080830151610b1660808601826109fb565b5060a0830151610b2960a0860182610a95565b508091505092915050565b6000610b408383610aa4565b905092915050565b6000602082019050919050565b6000610b60826109cf565b610b6a81856109da565b935083602082028501610b7c856109eb565b8060005b85811015610bb85784840389528151610b998582610b34565b9450610ba483610b48565b925060208a01995050600181019050610b80565b50829750879550505050505092915050565b60006020820190508181036000830152610be48184610b55565b905092915050565b610bf581610a89565b8114610c0057600080fd5b50565b600081359050610c1281610bec565b92915050565b600080600060608486031215610c3157610c3061073f565b5b6000610c3f8682870161076a565b9350506020610c508682870161076a565b9250506040610c6186828701610c03565b9150509250925092565b600082825260208201905092915050565b6000610c8782610a0a565b610c918185610c6b565b9350610ca1818560208601610a26565b610caa816107e0565b840191505092915050565b610cbe81610a89565b82525050565b600060c082019050610cd960008301896107ac565b610ce660208301886107ac565b8181036040830152610cf88187610c7c565b90508181036060830152610d0c8186610c7c565b9050610d1b60808301856107ac565b610d2860a0830184610cb5565b979650505050505050565b7f4e487b7100000000000000000000000000000000000000000000000000000000600052602260045260246000fd5b60006002820490506001821680610d7a57607f821691505b602082108103610d8d57610d8c610d33565b5b50919050565b60008190508160005260206000209050919050565b60006020601f8301049050919050565b600082821b905092915050565b600060088302610df57fffffffffffffffffffffffffffffffffffffffffffffffffffffffffffffffff82610db8565b610dff8683610db8565b95508019841693508086168417925050509392505050565b6000819050919050565b6000610e3c610e37610e3284610749565b610e17565b610749565b9050919050565b6000819050919050565b610e5683610e21565b610e6a610e6282610e43565b848454610dc5565b825550505050565b600090565b610e7f610e72565b610e8a818484610e4d565b505050565b5b81811015610eae57610ea3600082610e77565b600181019050610e90565b5050565b601f821115610ef357610ec481610d93565b610ecd84610da8565b81016020851015610edc578190505b610ef0610ee885610da8565b830182610e8f565b50505b505050565b600082821c905092915050565b6000610f1660001984600802610ef8565b1980831691505092915050565b6000610f2f8383610f05565b9150826002028217905092915050565b610f4882610a0a565b67ffffffffffffffff811115610f6157610f606107f1565b5b610f6b8254610d62565b610f76828285610eb2565b600060209050601f831160018114610fa95760008415610f97578287015190505b610fa18582610f23565b865550611009565b601f198416610fb786610d93565b60005b82811015610fdf57848901518255600182019150602085019450602081019050610fba565b86831015610ffc5784890151610ff8601f891682610f05565b8355505b6001600288020188555050505b505050505050565b600060808201905061102660008301876107ac565b61103360208301866107ac565b81810360408301526110458185610c7c565b905061105460608301846107ac565b95945050505050565b7f4e487b7100000000000000000000000000000000000000000000000000000000600052603260045260246000fd5b7f4e487b7100000000000000000000000000000000000000000000000000000000600052601160045260246000fd5b60006110c682610749565b91506110d183610749565b92508282019050808211156110e9576110e861108c565b5b92915050565b60006110fa82610749565b915061110583610749565b925082820390508181111561111d5761111c61108c565b5b92915050565b600060608201905061113860008301866107ac565b61114560208301856107ac565b6111526040830184610cb5565b949350505050565b600061116582610749565b91507fffffffffffffffffffffffffffffffffffffffffffffffffffffffffffffffff82036111975761119661108c565b5b60018201905091905056fea264697066735822122023b91ba63b8fffa4a1157c8220f88218fbb464d5dde752b2d8e8309c5aa1482a64736f6c63430008130033",
  "immutableReferences": {},
  "source": "// SPDX-License-Identifier: MIT\r\npragma solidity ^0.8.19;\r\n\r\ncontract Reputation {\r\n\r\n    struct Update {\r\n        uint round;\r\n        uint clientId;\r\n        string cid;\r\n        string proofHash;\r\n        uint accuracy;\r\n        bool verified;\r\n    }\r\n\r\n    mapping(uint => uint) public reputation;\r\n    Update[] public updates;\r\n\r\n    event UpdateSubmitted(\r\n        uint round,\r\n        uint clientId,\r\n        string cid,\r\n        uint accuracy\r\n    );\r\n\r\n    event UpdateVerified(\r\n        uint round,\r\n        uint clientId,\r\n        bool result\r\n    );\r\n\r\n    // =============================\r\n    // Client submit model update\r\n    // =============================\r\n    function submitUpdate(\r\n        uint round,\r\n        uint clientId,\r\n        string memory cid,\r\n        string memory proofHash,\r\n        uint accuracy\r\n    ) public {\r\n\r\n        updates.push(\r\n            Update(\r\n                round,\r\n                clientId,\r\n                cid,\r\n                proofHash,\r\n                accuracy,\r\n                false\r\n            )\r\n        );\r\n\r\n        emit UpdateSubmitted(\r\n            round,\r\n            clientId,\r\n            cid,\r\n            accuracy\r\n        );\r\n    }\r\n\r\n    // =============================\r\n    // Server verify update\r\n    // =============================\r\n    function verifyUpdate(\r\n        uint clientId,\r\n        uint round,\r\n        bool result\r\n    ) public {\r\n\r\n        for (uint i = 0; i < updates.length; i++) {\r\n\r\n            if (\r\n                updates[i].clientId == clientId &&\r\n                updates[i].round == round\r\n            ) {\r\n\r\n                updates[i].verified = result;\r\n\r\n                if (result) {\r\n                    reputation[clientId] += 1;\r\n                } else {\r\n\r\n                    if (reputation[clientId] > 0) {\r\n                        reputation[clientId] -= 1;\r\n                    }\r\n\r\n                }\r\n\r\n                emit UpdateVerified(\r\n                    round,\r\n                    clientId,\r\n                    result\r\n                );\r\n\r\n                break;\r\n            }\r\n        }\r\n    }\r\n\r\n    // =============================\r\n    // Get reputation\r\n    // =============================\r\n    function getReputation(uint clientId)\r\n        public\r\n        view\r\n        returns (uint)\r\n    {\r\n        return reputation[clientId];\r\n    }\r\n\r\n    // =============================\r\n    // Get all updates\r\n    // =============================\r\n    function getUpdates()\r\n        public\r\n        view\r\n        returns (Update[] memory)\r\n    {\r\n        return updates;\r\n    }\r\n}",
  "sourcePath": "E:\\Desktop\\HK2 25-26\\ĐACN\\Project\\contracts\\Reputation.sol",
  "compiler": {
    "name": "solc",
    "version": "0.8.19+commit.7dd6d404.Emscripten.clang"
  },
  "schemaVersion": "3.4.16",
  "updatedAt": "2026-04-02T03:00:40.236Z",
  "networkType": "ethereum",
  "devdoc": {
    "kind": "dev",
    "methods": {},
    "version": 1
  },
  "userdoc": {
    "kind": "user",
    "methods": {},
    "version": 1
  }
}